{
  "abi": [
    {
      "anonymous": false,
      "inputs": [
        {
          "indexed": false,
          "internalType": "address",
          "name": "renter",
          "type": "address"
        },
        {
          "indexed": false,
          "internalType": "uint32",
          "name": "id",
          "type": "uint32"
        },
        {
          "indexed": false,
          "internalType": "uint256",
          "name": "start",
          "type": "uint256"
        },
        {
          "indexed": false,
          "internalType": "uint256",
          "name": "end",
          "type": "uint256"
        }
      ],
      "name": "LogApplicationApproved",
      "type": "event"
    },
    {
      "anonymous": false,
      "inputs": [
        {
          "indexed": false,
          "internalType": "uint256",
          "name": "listingId",
          "type": "uint256"
        },
        {
          "indexed": false,
          "internalType": "uint256",
          "name": "start",
          "type": "uint256"
        },
        {
          "indexed": false,
          "internalType": "uint256",
          "name": "end",
          "type": "uint256"
        }
      ],
      "name": "LogApplicationSent",
      "type": "event"
    },
    {
      "anonymous": false,
      "inputs": [
        {
          "indexed": false,
          "internalType": "address",
          "name": "owner",
          "type": "address"
        },
        {
          "indexed": false,
          "internalType": "string",
          "name": "propertyName",
          "type": "string"
        },
        {
          "indexed": false,
          "internalType": "string",
          "name": "propertyDescription",
          "type": "string"
        },
        {
          "indexed": false,
          "internalType": "string",
          "name": "propertyAddress",
          "type": "string"
        },
        {
          "indexed": false,
          "internalType": "string[]",
          "name": "images",
          "type": "string[]"
        },
        {
          "indexed": false,
          "internalType": "uint128",
          "name": "price",
          "type": "uint128"
        }
      ],
      "name": "LogListingAdded",
      "type": "event"
    },
    {
      "inputs": [
        {
          "components": [
            {
              "internalType": "string",
              "name": "name",
              "type": "string"
            },
            {
              "internalType": "string",
              "name": "description",
              "type": "string"
            },
            {
              "internalType": "string",
              "name": "location",
              "type": "string"
            }
          ],
          "internalType": "struct RentingContract.PropertyInfo",
          "name": "_propertyInfo",
          "type": "tuple"
        },
        {
          "internalType": "string[]",
          "name": "_images",
          "type": "string[]"
        },
        {
          "internalType": "uint128",
          "name": "_price",
          "type": "uint128"
        }
      ],
      "name": "addListing",
      "outputs": [
        {
          "internalType": "uint256",
          "name": "id",
          "type": "uint256"
        }
      ],
      "stateMutability": "nonpayable",
      "type": "function"
    },
    {
      "inputs": [
        {
          "internalType": "uint256",
          "name": "_id",
          "type": "uint256"
        },
        {
          "internalType": "uint256",
          "name": "_start",
          "type": "uint256"
        },
        {
          "internalType": "uint256",
          "name": "_end",
          "type": "uint256"
        }
      ],
      "name": "applyForListing",
      "outputs": [],
      "stateMutability": "nonpayable",
      "type": "function"
    },
    {
      "inputs": [
        {
          "internalType": "uint32",
          "name": "_id",
          "type": "uint32"
        },
        {
          "internalType": "uint32",
          "name": "_applicationId",
          "type": "uint32"
        }
      ],
      "name": "approveApplication",
      "outputs": [],
      "stateMutability": "nonpayable",
      "type": "function"
    },
    {
      "inputs": [
        {
          "internalType": "uint256",
          "name": "_id",
          "type": "uint256"
        }
      ],
      "name": "getApplicationsForListing",
      "outputs": [
        {
          "components": [
            {
              "internalType": "address",
              "name": "applicant",
              "type": "address"
            },
            {
              "internalType": "uint256",
              "name": "start",
              "type": "uint256"
            },
            {
              "internalType": "uint256",
              "name": "end",
              "type": "uint256"
            }
          ],
          "internalType": "struct RentingContract.Application[]",
          "name": "",
          "type": "tuple[]"
        }
      ],
      "stateMutability": "view",
      "type": "function"
    },
    {
      "inputs": [
        {
          "internalType": "uint256",
          "name": "_id",
          "type": "uint256"
        }
      ],
      "name": "getListingById",
      "outputs": [
        {
          "components": [
            {
              "internalType": "address",
              "name": "owner",
              "type": "address"
            },
            {
              "components": [
                {
                  "internalType": "string",
                  "name": "name",
                  "type": "string"
                },
                {
                  "internalType": "string",
                  "name": "description",
                  "type": "string"
                },
                {
                  "internalType": "string",
                  "name": "location",
                  "type": "string"
                }
              ],
              "internalType": "struct RentingContract.PropertyInfo",
              "name": "propertyInfo",
              "type": "tuple"
            },
            {
              "internalType": "string[]",
              "name": "images",
              "type": "string[]"
            },
            {
              "internalType": "uint128",
              "name": "price",
              "type": "uint128"
            },
            {
              "internalType": "address[]",
              "name": "renters",
              "type": "address[]"
            },
            {
              "internalType": "uint256[2][]",
              "name": "rentDates",
              "type": "uint256[2][]"
            },
            {
              "internalType": "uint256[3]",
              "name": "rentedDates",
              "type": "uint256[3]"
            },
            {
              "components": [
                {
                  "internalType": "address",
                  "name": "applicant",
                  "type": "address"
                },
                {
                  "internalType": "uint256",
                  "name": "start",
                  "type": "uint256"
                },
                {
                  "internalType": "uint256",
                  "name": "end",
                  "type": "uint256"
                }
              ],
              "internalType": "struct RentingContract.Application[]",
              "name": "pendingApplications",
              "type": "tuple[]"
            }
          ],
          "internalType": "struct RentingContract.Listing",
          "name": "",
          "type": "tuple"
        }
      ],
      "stateMutability": "view",
      "type": "function"
    },
    {
      "inputs": [],
      "name": "getListings",
      "outputs": [
        {
          "components": [
            {
              "internalType": "address",
              "name": "owner",
              "type": "address"
            },
            {
              "components": [
                {
                  "internalType": "string",
                  "name": "name",
                  "type": "string"
                },
                {
                  "internalType": "string",
                  "name": "description",
                  "type": "string"
                },
                {
                  "internalType": "string",
                  "name": "location",
                  "type": "string"
                }
              ],
              "internalType": "struct RentingContract.PropertyInfo",
              "name": "propertyInfo",
              "type": "tuple"
            },
            {
              "internalType": "string[]",
              "name": "images",
              "type": "string[]"
            },
            {
              "internalType": "uint128",
              "name": "price",
              "type": "uint128"
            },
            {
              "internalType": "address[]",
              "name": "renters",
              "type": "address[]"
            },
            {
              "internalType": "uint256[2][]",
              "name": "rentDates",
              "type": "uint256[2][]"
            },
            {
              "internalType": "uint256[3]",
              "name": "rentedDates",
              "type": "uint256[3]"
            },
            {
              "components": [
                {
                  "internalType": "address",
                  "name": "applicant",
                  "type": "address"
                },
                {
                  "internalType": "uint256",
                  "name": "start",
                  "type": "uint256"
                },
                {
                  "internalType": "uint256",
                  "name": "end",
                  "type": "uint256"
                }
              ],
              "internalType": "struct RentingContract.Application[]",
              "name": "pendingApplications",
              "type": "tuple[]"
            }
          ],
          "internalType": "struct RentingContract.Listing[]",
          "name": "",
          "type": "tuple[]"
        }
      ],
      "stateMutability": "view",
      "type": "function"
    }
  ],
  "bytecode": {
    "object": "0x608060405234801561001057600080fd5b50612071806100206000396000f3fe608060405234801561001057600080fd5b50600436106100625760003560e01c806322e8ea34146100675780634f85310f1461007c578063a182ef99146100a5578063ed3b8f8f146100c6578063f1b2d6a3146100e6578063feaff024146100fb575b600080fd5b61007a6100753660046116db565b61010e565b005b61008f61008a366004611707565b610297565b60405161009c91906119e3565b60405180910390f35b6100b86100b3366004611b98565b61075b565b60405190815260200161009c565b6100d96100d4366004611707565b610871565b60405161009c9190611c82565b6100ee61093c565b60405161009c9190611c95565b61007a610109366004611d0b565b610dfc565b6000548390811061013a5760405162461bcd60e51b815260040161013190611d3e565b60405180910390fd5b83336001600160a01b03166000828154811061015857610158611d81565b60009182526020909120600c90910201546001600160a01b0316036101c95760405162461bcd60e51b815260206004820152602160248201527f4f776e65722063616e6e6f742072656e7420686973206f776e206c697374696e6044820152606760f81b6064820152608401610131565b600085815481106101dc576101dc611d81565b6000918252602080832060408051606080820183523382528185018b81528284018b8152600c97909702909401600b01805460018082018355918952978690209251600390980290920180546001600160a01b0319166001600160a01b03909816979097178755925190860155925160029094019390935581518881529081018790529081018590527fa46285acdadef536e2c4ae6dc5c4cc11577ef09112644016b5b648040a773ff8910160405180910390a15050505050565b61029f61153f565b600054829081106102c25760405162461bcd60e51b815260040161013190611d3e565b600083815481106102d5576102d5611d81565b60009182526020918290206040805161010081018252600c90930290910180546001600160a01b031683528151606081019092526001810180549394919391850192918290829061032590611d97565b80601f016020809104026020016040519081016040528092919081815260200182805461035190611d97565b801561039e5780601f106103735761010080835404028352916020019161039e565b820191906000526020600020905b81548152906001019060200180831161038157829003601f168201915b505050505081526020016001820180546103b790611d97565b80601f01602080910402602001604051908101604052809291908181526020018280546103e390611d97565b80156104305780601f1061040557610100808354040283529160200191610430565b820191906000526020600020905b81548152906001019060200180831161041357829003601f168201915b5050505050815260200160028201805461044990611d97565b80601f016020809104026020016040519081016040528092919081815260200182805461047590611d97565b80156104c25780601f10610497576101008083540402835291602001916104c2565b820191906000526020600020905b8154815290600101906020018083116104a557829003601f168201915b505050505081525050815260200160048201805480602002602001604051908101604052809291908181526020016000905b828210156105a057838290600052602060002001805461051390611d97565b80601f016020809104026020016040519081016040528092919081815260200182805461053f90611d97565b801561058c5780601f106105615761010080835404028352916020019161058c565b820191906000526020600020905b81548152906001019060200180831161056f57829003601f168201915b5050505050815260200190600101906104f4565b5050509082525060058201546001600160801b0316602080830191909152600683018054604080518285028101850182528281529401939283018282801561061157602002820191906000526020600020905b81546001600160a01b031681526001909101906020018083116105f3575b5050505050815260200160078201805480602002602001604051908101604052809291908181526020016000905b8282101561068f5760008481526020902060408051808201918290529160028581029091019182845b8154815260200190600101908083116106685750505050508152602001906001019061063f565b5050509082525060408051606081019182905260209092019190600884019060039082845b8154815260200190600101908083116106b45750505050508152602001600b8201805480602002602001604051908101604052809291908181526020016000905b8282101561074a576000848152602090819020604080516060810182526003860290920180546001600160a01b03168352600180820154848601526002909101549183019190915290835290920191016106f5565b505050508152505091505b50919050565b600080548190819061076b611d81565b60009182526020909120600c9091020180546001600160a01b0319163317815585519091508590600183019081906107a39082611e1a565b50602082015160018201906107b89082611e1a565b50604082015160028201906107cd9082611e1a565b505084516107e59150600483019060208701906115be565b506005810180546fffffffffffffffffffffffffffffffff19166001600160801b0385161790558451602086015160408088015190517f6cf1d3f89bb3037bf1471d9d33297efc3bc4eb5ed0cb39cc13a5066a6b0cbf619361085193339391929091908a908a90611eda565b60405180910390a160005461086890600190611fb4565b95945050505050565b600054606090829081106108975760405162461bcd60e51b815260040161013190611d3e565b600083815481106108aa576108aa611d81565b90600052602060002090600c0201600b01805480602002602001604051908101604052809291908181526020016000905b82821015610930576000848152602090819020604080516060810182526003860290920180546001600160a01b03168352600180820154848601526002909101549183019190915290835290920191016108db565b50505050915050919050565b60606000805480602002602001604051908101604052809291908181526020016000905b82821015610df35760008481526020908190206040805161010081018252600c860290920180546001600160a01b03168352815160608101909252600181018054939491939185019291829082906109b790611d97565b80601f01602080910402602001604051908101604052809291908181526020018280546109e390611d97565b8015610a305780601f10610a0557610100808354040283529160200191610a30565b820191906000526020600020905b815481529060010190602001808311610a1357829003601f168201915b50505050508152602001600182018054610a4990611d97565b80601f0160208091040260200160405190810160405280929190818152602001828054610a7590611d97565b8015610ac25780601f10610a9757610100808354040283529160200191610ac2565b820191906000526020600020905b815481529060010190602001808311610aa557829003601f168201915b50505050508152602001600282018054610adb90611d97565b80601f0160208091040260200160405190810160405280929190818152602001828054610b0790611d97565b8015610b545780601f10610b2957610100808354040283529160200191610b54565b820191906000526020600020905b815481529060010190602001808311610b3757829003601f168201915b505050505081525050815260200160048201805480602002602001604051908101604052809291908181526020016000905b82821015610c32578382906000526020600020018054610ba590611d97565b80601f0160208091040260200160405190810160405280929190818152602001828054610bd190611d97565b8015610c1e5780601f10610bf357610100808354040283529160200191610c1e565b820191906000526020600020905b815481529060010190602001808311610c0157829003601f168201915b505050505081526020019060010190610b86565b5050509082525060058201546001600160801b03166020808301919091526006830180546040805182850281018501825282815294019392830182828015610ca357602002820191906000526020600020905b81546001600160a01b03168152600190910190602001808311610c85575b5050505050815260200160078201805480602002602001604051908101604052809291908181526020016000905b82821015610d215760008481526020902060408051808201918290529160028581029091019182845b815481526020019060010190808311610cfa57505050505081526020019060010190610cd1565b5050509082525060408051606081019182905260209092019190600884019060039082845b815481526020019060010190808311610d465750505050508152602001600b8201805480602002602001604051908101604052809291908181526020016000905b82821015610ddc576000848152602090819020604080516060810182526003860290920180546001600160a01b0316835260018082015484860152600290910154918301919091529083529092019101610d87565b505050508152505081526020019060010190610960565b50505050905090565b60005463ffffffff8316908110610e255760405162461bcd60e51b815260040161013190611d3e565b8263ffffffff168263ffffffff166000808381548110610e4757610e47611d81565b90600052602060002090600c0201600b018281548110610e6957610e69611d81565b90600052602060002090600302016001015490506000808481548110610e9157610e91611d81565b90600052602060002090600c0201600b018381548110610eb357610eb3611d81565b9060005260206000209060030201600201549050808210610f215760405162461bcd60e51b815260206004820152602260248201527f53746172742064617465206d757374206265206265666f726520656e64206461604482015261746560f01b6064820152608401610131565b6102da610f2e8383611fb4565b1115610f865760405162461bcd60e51b815260206004820152602160248201527f43616e6e6f742072656e7420666f72206d6f7265207468616e203220796561726044820152607360f81b6064820152608401610131565b815b8181101561105457610f9c61010082611fe3565b6001901b60008681548110610fb357610fb3611d81565b90600052602060002090600c020160080161010083610fd29190611ff7565b60038110610fe257610fe2611d81565b015416156110425760405162461bcd60e51b815260206004820152602760248201527f4c697374696e6720697320616c72656164792072656e74656420666f722074686044820152666973206461746560c81b6064820152608401610131565b8061104c8161200b565b915050610f88565b508663ffffffff16336001600160a01b03166000828154811061107957611079611d81565b60009182526020909120600c90910201546001600160a01b0316146110ee5760405162461bcd60e51b815260206004820152602560248201527f4f6e6c79206f776e65722063616e20617070726f766520616e206170706c696360448201526430ba34b7b760d91b6064820152608401610131565b6000808963ffffffff168154811061110857611108611d81565b90600052602060002090600c0201600b018863ffffffff168154811061113057611130611d81565b90600052602060002090600302016001015490506000808a63ffffffff168154811061115e5761115e611d81565b90600052602060002090600c0201600b018963ffffffff168154811061118657611186611d81565b90600052602060002090600302016002015490506000808b63ffffffff16815481106111b4576111b4611d81565b90600052602060002090600c0201600b018a63ffffffff16815481106111dc576111dc611d81565b60009182526020909120600390910201546001600160a01b03169050825b8281116112735761120d61010082611fe3565b6001901b60008d63ffffffff168154811061122a5761122a611d81565b90600052602060002090600c0201600801610100836112499190611ff7565b6003811061125957611259611d81565b01805490911790558061126b8161200b565b9150506111fa565b5060008b63ffffffff168154811061128d5761128d611d81565b60009182526020808320600c9290920290910160060180546001810182559083529082200180546001600160a01b0319166001600160a01b038416179055805463ffffffff8d169081106112e3576112e3611d81565b6000918252602080832060408051808201909152878152808301879052600c93909302016007018054600181018255908452922061132a9260029081029091019190611614565b50604080516001600160a01b038316815263ffffffff8d166020820152908101849052606081018390527f7f487747d76fc9f1de203ffc2079e6d88287f24736e48a861a2a1cf3207f293e9060800160405180910390a160008b63ffffffff168154811061139a5761139a611d81565b90600052602060002090600c0201600b018a63ffffffff16815481106113c2576113c2611d81565b60009182526020822060039091020180546001600160a01b031916815560018101829055600201819055805461141e919063ffffffff8e1690811061140957611409611d81565b90600052602060002090600c0201848461142b565b5050505050505050505050565b600b83015460005b8181101561153857600085600b01828154811061145257611452611d81565b9060005260206000209060030201600101549050600086600b01838154811061147d5761147d611d81565b906000526020600020906003020160020154905060008290505b818111611522578087111580156114ae5750858111155b156115105787600b0184815481106114c8576114c8611d81565b60009182526020822060039091020180546001600160a01b03191681556001810182905560020155836114fa81612024565b945050848061150890612024565b955050611522565b8061151a8161200b565b915050611497565b50505080806115309061200b565b915050611433565b5050505050565b60405180610100016040528060006001600160a01b0316815260200161157f60405180606001604052806060815260200160608152602001606081525090565b81526020016060815260200160006001600160801b0316815260200160608152602001606081526020016115b161164e565b8152602001606081525090565b828054828255906000526020600020908101928215611604579160200282015b8281111561160457825182906115f49082611e1a565b50916020019190600101906115de565b5061161092915061166c565b5090565b8260028101928215611642579160200282015b82811115611642578251825591602001919060010190611627565b50611610929150611689565b60405180606001604052806003906020820280368337509192915050565b80821115611610576000611680828261169e565b5060010161166c565b5b80821115611610576000815560010161168a565b5080546116aa90611d97565b6000825580601f106116ba575050565b601f0160209004906000526020600020908101906116d89190611689565b50565b6000806000606084860312156116f057600080fd5b505081359360208301359350604090920135919050565b60006020828403121561171957600080fd5b5035919050565b6000815180845260005b818110156117465760208185018101518683018201520161172a565b506000602082860101526020601f19601f83011685010191505092915050565b600081516060845261177b6060850182611720565b9050602083015184820360208601526117948282611720565b915050604083015184820360408601526108688282611720565b600082825180855260208086019550808260051b84010181860160005b848110156117f957601f198684030189526117e7838351611720565b988401989250908301906001016117cb565b5090979650505050505050565b600081518084526020808501945080840160005b8381101561183f5781516001600160a01b03168752958201959082019060010161181a565b509495945050505050565b60008151808452602080850194508084016000805b8481101561189f57825188835b60028110156118895782518252918601919086019060010161186c565b505050604097909701969183019160010161185f565b50959695505050505050565b8060005b60038110156118ce5781518452602093840193909101906001016118af565b50505050565b600081518084526020808501945080840160005b8381101561183f57815180516001600160a01b03168852838101518489015260409081015190880152606090960195908201906001016118e8565b80516001600160a01b031682526000610140602083015181602086015261194c82860182611766565b9150506040830151848203604086015261196682826117ae565b915050606083015161198360608601826001600160801b03169052565b506080830151848203608086015261199b8282611806565b91505060a083015184820360a08601526119b5828261184a565b91505060c08301516119ca60c08601826118ab565b5060e083015184820361012086015261086882826118d4565b6020815260006119f66020830184611923565b9392505050565b634e487b7160e01b600052604160045260246000fd5b6040516060810167ffffffffffffffff81118282101715611a3657611a366119fd565b60405290565b604051601f8201601f1916810167ffffffffffffffff81118282101715611a6557611a656119fd565b604052919050565b600082601f830112611a7e57600080fd5b813567ffffffffffffffff811115611a9857611a986119fd565b611aab601f8201601f1916602001611a3c565b818152846020838601011115611ac057600080fd5b816020850160208301376000918101602001919091529392505050565b600082601f830112611aee57600080fd5b8135602067ffffffffffffffff80831115611b0b57611b0b6119fd565b8260051b611b1a838201611a3c565b9384528581018301938381019088861115611b3457600080fd5b84880192505b85831015611b7057823584811115611b525760008081fd5b611b608a87838c0101611a6d565b8352509184019190840190611b3a565b98975050505050505050565b80356001600160801b0381168114611b9357600080fd5b919050565b600080600060608486031215611bad57600080fd5b833567ffffffffffffffff80821115611bc557600080fd5b9085019060608288031215611bd957600080fd5b611be1611a13565b823582811115611bf057600080fd5b611bfc89828601611a6d565b825250602083013582811115611c1157600080fd5b611c1d89828601611a6d565b602083015250604083013582811115611c3557600080fd5b611c4189828601611a6d565b60408301525094506020860135915080821115611c5d57600080fd5b50611c6a86828701611add565b925050611c7960408501611b7c565b90509250925092565b6020815260006119f660208301846118d4565b6000602080830181845280855180835260408601915060408160051b870101925083870160005b82811015611cea57603f19888603018452611cd8858351611923565b94509285019290850190600101611cbc565b5092979650505050505050565b803563ffffffff81168114611b9357600080fd5b60008060408385031215611d1e57600080fd5b611d2783611cf7565b9150611d3560208401611cf7565b90509250929050565b60208082526023908201527f4c697374696e672077697468207468697320696420646f6573206e6f742065786040820152621a5cdd60ea1b606082015260800190565b634e487b7160e01b600052603260045260246000fd5b600181811c90821680611dab57607f821691505b60208210810361075557634e487b7160e01b600052602260045260246000fd5b601f821115611e1557600081815260208120601f850160051c81016020861015611df25750805b601f850160051c820191505b81811015611e1157828155600101611dfe565b5050505b505050565b815167ffffffffffffffff811115611e3457611e346119fd565b611e4881611e428454611d97565b84611dcb565b602080601f831160018114611e7d5760008415611e655750858301515b600019600386901b1c1916600185901b178555611e11565b600085815260208120601f198616915b82811015611eac57888601518255948401946001909101908401611e8d565b5085821015611eca5787850151600019600388901b60f8161c191681555b5050505050600190811b01905550565b6001600160a01b038716815260c06020808301829052600091611eff90840189611720565b8381036040850152611f118189611720565b90508381036060850152611f258188611720565b905083810360808501528086518083528383019150838160051b84010184890160005b83811015611f7657601f19868403018552611f64838351611720565b94870194925090860190600101611f48565b50506001600160801b03881660a08801529450611f939350505050565b979650505050505050565b634e487b7160e01b600052601160045260246000fd5b81810381811115611fc757611fc7611f9e565b92915050565b634e487b7160e01b600052601260045260246000fd5b600082611ff257611ff2611fcd565b500690565b60008261200657612006611fcd565b500490565b60006001820161201d5761201d611f9e565b5060010190565b60008161203357612033611f9e565b50600019019056fea2646970667358221220a146c1c6979fab51ac061bf7474b46b8d00a4c84c76ef73e0e689a0fa46dd23f64736f6c63430008110033",
    "linkReferences": {}
  },
  "methodIdentifiers": {
    "addListing((string,string,string),string[],uint128)": "a182ef99",
    "applyForListing(uint256,uint256,uint256)": "22e8ea34",
    "approveApplication(uint32,uint32)": "feaff024",
    "getApplicationsForListing(uint256)": "ed3b8f8f",
    "getListingById(uint256)": "4f85310f",
    "getListings()": "f1b2d6a3"
  },
  "id": 0
}